{
  "_format": "hh-sol-artifact-1",
  "contractName": "L1Contract",
  "sourceName": "contracts/L1Contract.sol",
  "abi": [
    {
      "anonymous": false,
      "inputs": [
        {
          "indexed": true,
          "internalType": "bytes32",
          "name": "txHash",
          "type": "bytes32"
        },
        {
          "indexed": true,
          "internalType": "address",
          "name": "zkSyncAddress",
          "type": "address"
        },
        {
          "indexed": true,
          "internalType": "address",
          "name": "l2ContractAddress",
          "type": "address"
        },
        {
          "indexed": false,
          "internalType": "bytes",
          "name": "message",
          "type": "bytes"
        }
      ],
      "name": "MessageSent",
      "type": "event"
    },
    {
      "inputs": [
        {
          "internalType": "address",
          "name": "zkSyncAddress",
          "type": "address"
        },
        {
          "internalType": "address",
          "name": "l2ContractAddress",
          "type": "address"
        },
        {
          "internalType": "string",
          "name": "greeting",
          "type": "string"
        }
      ],
      "name": "sendGreetingMessageToL2",
      "outputs": [
        {
          "internalType": "bytes32",
          "name": "txHash",
          "type": "bytes32"
        }
      ],
      "stateMutability": "payable",
      "type": "function"
    }
  ],
  "bytecode": "0x608060405234801561001057600080fd5b5061083b806100206000396000f3fe60806040526004361061001e5760003560e01c80633f141a7d14610023575b600080fd5b61003d600480360381019061003891906103eb565b610053565b60405161004a9190610473565b60405180910390f35b60008082604051602401610067919061050d565b6040516020818303038152906040527fa4136862000000000000000000000000000000000000000000000000000000007bffffffffffffffffffffffffffffffffffffffffffffffffffffffff19166020820180517bffffffffffffffffffffffffffffffffffffffffffffffffffffffff8381831617835250505050905060008590508073ffffffffffffffffffffffffffffffffffffffff1663725ad8503487600086620186a0600067ffffffffffffffff81111561012b5761012a6102c0565b5b60405190808252806020026020018201604052801561015e57816020015b60608152602001906001900390816101495790505b506040518763ffffffff1660e01b815260040161017f959493929190610729565b60206040518083038185885af115801561019d573d6000803e3d6000fd5b50505050506040513d601f19601f820116820180604052508101906101c291906107b6565b92508473ffffffffffffffffffffffffffffffffffffffff168673ffffffffffffffffffffffffffffffffffffffff16847f61088d5a89c6cf511db3e2c97fb482d4a6e2ab5845f01f916f3b2c7c502290ee8560405161022291906107e3565b60405180910390a450509392505050565b6000604051905090565b600080fd5b600080fd5b600073ffffffffffffffffffffffffffffffffffffffff82169050919050565b600061027282610247565b9050919050565b61028281610267565b811461028d57600080fd5b50565b60008135905061029f81610279565b92915050565b600080fd5b600080fd5b6000601f19601f8301169050919050565b7f4e487b7100000000000000000000000000000000000000000000000000000000600052604160045260246000fd5b6102f8826102af565b810181811067ffffffffffffffff82111715610317576103166102c0565b5b80604052505050565b600061032a610233565b905061033682826102ef565b919050565b600067ffffffffffffffff821115610356576103556102c0565b5b61035f826102af565b9050602081019050919050565b82818337600083830152505050565b600061038e6103898461033b565b610320565b9050828152602081018484840111156103aa576103a96102aa565b5b6103b584828561036c565b509392505050565b600082601f8301126103d2576103d16102a5565b5b81356103e284826020860161037b565b91505092915050565b6000806000606084860312156104045761040361023d565b5b600061041286828701610290565b935050602061042386828701610290565b925050604084013567ffffffffffffffff81111561044457610443610242565b5b610450868287016103bd565b9150509250925092565b6000819050919050565b61046d8161045a565b82525050565b60006020820190506104886000830184610464565b92915050565b600081519050919050565b600082825260208201905092915050565b60005b838110156104c85780820151818401526020810190506104ad565b60008484015250505050565b60006104df8261048e565b6104e98185610499565b93506104f98185602086016104aa565b610502816102af565b840191505092915050565b6000602082019050818103600083015261052781846104d4565b905092915050565b61053881610267565b82525050565b6000819050919050565b6000819050919050565b6000819050919050565b600061057761057261056d8461053e565b610552565b610548565b9050919050565b6105878161055c565b82525050565b600081519050919050565b600082825260208201905092915050565b60006105b48261058d565b6105be8185610598565b93506105ce8185602086016104aa565b6105d7816102af565b840191505092915050565b6000819050919050565b60006106076106026105fd846105e2565b610552565b610548565b9050919050565b610617816105ec565b82525050565b600081519050919050565b600082825260208201905092915050565b6000819050602082019050919050565b600082825260208201905092915050565b60006106658261058d565b61066f8185610649565b935061067f8185602086016104aa565b610688816102af565b840191505092915050565b600061069f838361065a565b905092915050565b6000602082019050919050565b60006106bf8261061d565b6106c98185610628565b9350836020820285016106db85610639565b8060005b8581101561071757848403895281516106f88582610693565b9450610703836106a7565b925060208a019950506001810190506106df565b50829750879550505050505092915050565b600060a08201905061073e600083018861052f565b61074b602083018761057e565b818103604083015261075d81866105a9565b905061076c606083018561060e565b818103608083015261077e81846106b4565b90509695505050505050565b6107938161045a565b811461079e57600080fd5b50565b6000815190506107b08161078a565b92915050565b6000602082840312156107cc576107cb61023d565b5b60006107da848285016107a1565b91505092915050565b600060208201905081810360008301526107fd81846105a9565b90509291505056fea2646970667358221220de600efd50bec5fe8831cec67a3b3b267e7f406993f6b5abfd0bc0769c86571664736f6c63430008110033",
  "linkReferences": {},
  "deployedLinkReferences": {}
}